{
  "address": "0xDc64a140Aa3E981100a9becA4E685f962f0cF6C9",
  "abi": [
    {
      "inputs": [
        {
          "internalType": "address",
          "name": "_newAccessController",
          "type": "address"
        },
        {
          "internalType": "address",
          "name": "_newDepositRecord",
          "type": "address"
        }
      ],
      "stateMutability": "nonpayable",
      "type": "constructor"
    },
    {
      "anonymous": false,
      "inputs": [
        {
          "indexed": true,
          "internalType": "address",
          "name": "previousOwner",
          "type": "address"
        },
        {
          "indexed": true,
          "internalType": "address",
          "name": "newOwner",
          "type": "address"
        }
      ],
      "name": "OwnershipTransferred",
      "type": "event"
    },
    {
      "anonymous": false,
      "inputs": [
        {
          "indexed": false,
          "internalType": "address",
          "name": "vault",
          "type": "address"
        }
      ],
      "name": "VaultChanged",
      "type": "event"
    },
    {
      "inputs": [],
      "name": "getAccountAccessController",
      "outputs": [
        {
          "internalType": "contract IAccountAccessController",
          "name": "",
          "type": "address"
        }
      ],
      "stateMutability": "view",
      "type": "function"
    },
    {
      "inputs": [],
      "name": "getDepositRecord",
      "outputs": [
        {
          "internalType": "contract ICollateralDepositRecord",
          "name": "",
          "type": "address"
        }
      ],
      "stateMutability": "view",
      "type": "function"
    },
    {
      "inputs": [],
      "name": "getVault",
      "outputs": [
        {
          "internalType": "address",
          "name": "",
          "type": "address"
        }
      ],
      "stateMutability": "view",
      "type": "function"
    },
    {
      "inputs": [
        {
          "internalType": "address",
          "name": "_sender",
          "type": "address"
        },
        {
          "internalType": "uint256",
          "name": "_initialAmount",
          "type": "uint256"
        },
        {
          "internalType": "uint256",
          "name": "_finalAmount",
          "type": "uint256"
        }
      ],
      "name": "hook",
      "outputs": [],
      "stateMutability": "nonpayable",
      "type": "function"
    },
    {
      "inputs": [],
      "name": "owner",
      "outputs": [
        {
          "internalType": "address",
          "name": "",
          "type": "address"
        }
      ],
      "stateMutability": "view",
      "type": "function"
    },
    {
      "inputs": [],
      "name": "renounceOwnership",
      "outputs": [],
      "stateMutability": "nonpayable",
      "type": "function"
    },
    {
      "inputs": [
        {
          "internalType": "address",
          "name": "_newVault",
          "type": "address"
        }
      ],
      "name": "setVault",
      "outputs": [],
      "stateMutability": "nonpayable",
      "type": "function"
    },
    {
      "inputs": [
        {
          "internalType": "address",
          "name": "newOwner",
          "type": "address"
        }
      ],
      "name": "transferOwnership",
      "outputs": [],
      "stateMutability": "nonpayable",
      "type": "function"
    }
  ],
  "transactionHash": "0x2d663aeff8032b0f1e2cb0392b0b3836d51062fcce2a9c0ca0e3f2e4b5e2c629",
  "args": [
    "0x5FbDB2315678afecb367f032d93F642f64180aa3",
    "0xCf7Ed3AccA5a467e9e704C703E8D87F634fB0Fc9"
  ],
  "numDeployments": 1,
  "solcInputHash": "2291239b0483a343113106725cbe2c29",
  "bytecode": "0x608060405234801561001057600080fd5b5060405161095238038061095283398101604081905261002f916100d5565b61003833610069565b600280546001600160a01b039384166001600160a01b03199182161790915560038054929093169116179055610108565b600080546001600160a01b038381166001600160a01b0319831681178455604051919092169283917f8be0079c531659141344cd1fd0a4f28419497f9722a3daafe3b4186f6b6457e09190a35050565b80516001600160a01b03811681146100d057600080fd5b919050565b600080604083850312156100e857600080fd5b6100f1836100b9565b91506100ff602084016100b9565b90509250929050565b61083b806101176000396000f3fe608060405234801561001057600080fd5b50600436106100885760003560e01c80638d928af81161005b5780638d928af8146101005780638da5cb5b1461011e578063a85cae9f1461013c578063f2fde38b1461015a57600080fd5b80633223ac9b1461008d5780636817031b146100d0578063715018a6146100e557806377bd50e9146100ed575b600080fd5b60025473ffffffffffffffffffffffffffffffffffffffff165b60405173ffffffffffffffffffffffffffffffffffffffff909116815260200160405180910390f35b6100e36100de36600461078e565b61016d565b005b6100e361026c565b6100e36100fb3660046107b0565b6102f9565b60015473ffffffffffffffffffffffffffffffffffffffff166100a7565b60005473ffffffffffffffffffffffffffffffffffffffff166100a7565b60035473ffffffffffffffffffffffffffffffffffffffff166100a7565b6100e361016836600461078e565b6105c0565b60005473ffffffffffffffffffffffffffffffffffffffff1633146101f3576040517f08c379a000000000000000000000000000000000000000000000000000000000815260206004820181905260248201527f4f776e61626c653a2063616c6c6572206973206e6f7420746865206f776e657260448201526064015b60405180910390fd5b600180547fffffffffffffffffffffffff00000000000000000000000000000000000000001673ffffffffffffffffffffffffffffffffffffffff83169081179091556040519081527fa49691f0dd6477ccef49962612a236d252e3a31c3be8b61fa6abeff3e74a75729060200160405180910390a150565b60005473ffffffffffffffffffffffffffffffffffffffff1633146102ed576040517f08c379a000000000000000000000000000000000000000000000000000000000815260206004820181905260248201527f4f776e61626c653a2063616c6c6572206973206e6f7420746865206f776e657260448201526064016101ea565b6102f760006106f0565b565b60015473ffffffffffffffffffffffffffffffffffffffff16331461037a576040517f08c379a000000000000000000000000000000000000000000000000000000000815260206004820152601760248201527f43616c6c6572206973206e6f7420746865207661756c7400000000000000000060448201526064016101ea565b6002546040517f1fd9a8c600000000000000000000000000000000000000000000000000000000815273ffffffffffffffffffffffffffffffffffffffff858116600483015290911690631fd9a8c69060240160206040518083038186803b1580156103e557600080fd5b505afa1580156103f9573d6000803e3d6000fd5b505050506040513d601f19601f8201168201806040525081019061041d91906107e3565b80156104c957506002546040517fca88bd5b00000000000000000000000000000000000000000000000000000000815273ffffffffffffffffffffffffffffffffffffffff85811660048301529091169063ca88bd5b9060240160206040518083038186803b15801561048f57600080fd5b505afa1580156104a3573d6000803e3d6000fd5b505050506040513d601f19601f820116820180604052508101906104c791906107e3565b155b61052f576040517f08c379a000000000000000000000000000000000000000000000000000000000815260206004820152601e60248201527f4163636f756e74206e6f7420616c6c6f77656420746f206465706f736974000060448201526064016101ea565b6003546040517f1e578bae00000000000000000000000000000000000000000000000000000000815273ffffffffffffffffffffffffffffffffffffffff85811660048301526024820184905290911690631e578bae90604401600060405180830381600087803b1580156105a357600080fd5b505af11580156105b7573d6000803e3d6000fd5b50505050505050565b60005473ffffffffffffffffffffffffffffffffffffffff163314610641576040517f08c379a000000000000000000000000000000000000000000000000000000000815260206004820181905260248201527f4f776e61626c653a2063616c6c6572206973206e6f7420746865206f776e657260448201526064016101ea565b73ffffffffffffffffffffffffffffffffffffffff81166106e4576040517f08c379a000000000000000000000000000000000000000000000000000000000815260206004820152602660248201527f4f776e61626c653a206e6577206f776e657220697320746865207a65726f206160448201527f646472657373000000000000000000000000000000000000000000000000000060648201526084016101ea565b6106ed816106f0565b50565b6000805473ffffffffffffffffffffffffffffffffffffffff8381167fffffffffffffffffffffffff0000000000000000000000000000000000000000831681178455604051919092169283917f8be0079c531659141344cd1fd0a4f28419497f9722a3daafe3b4186f6b6457e09190a35050565b803573ffffffffffffffffffffffffffffffffffffffff8116811461078957600080fd5b919050565b6000602082840312156107a057600080fd5b6107a982610765565b9392505050565b6000806000606084860312156107c557600080fd5b6107ce84610765565b95602085013595506040909401359392505050565b6000602082840312156107f557600080fd5b815180151581146107a957600080fdfea26469706673582212207e1c89a4f5eb368f51b7610710b72bf74fd1f27d7c0cd828a6cb204aced5712764736f6c63430008070033",
  "devdoc": {
    "kind": "dev",
    "methods": {
      "owner()": {
        "details": "Returns the address of the current owner."
      },
      "renounceOwnership()": {
        "details": "Leaves the contract without owner. It will not be possible to call `onlyOwner` functions anymore. Can only be called by the current owner. NOTE: Renouncing ownership will leave the contract without an owner, thereby removing any functionality that is only available to the owner."
      },
      "transferOwnership(address)": {
        "details": "Transfers ownership of the contract to a new account (`newOwner`). Can only be called by the current owner."
      }
    },
    "version": 1
  },
  "userdoc": {
    "kind": "user",
    "methods": {},
    "version": 1
  },
  "storageLayout": {
    "storage": [
      {
        "astId": 1537,
        "contract": "contracts/core/DepositHook.sol:DepositHook",
        "label": "_owner",
        "offset": 0,
        "slot": "0",
        "type": "t_address"
      },
      {
        "astId": 4423,
        "contract": "contracts/core/DepositHook.sol:DepositHook",
        "label": "_vault",
        "offset": 0,
        "slot": "1",
        "type": "t_address"
      },
      {
        "astId": 4426,
        "contract": "contracts/core/DepositHook.sol:DepositHook",
        "label": "_accountAccessController",
        "offset": 0,
        "slot": "2",
        "type": "t_contract(IAccountAccessController)6037"
      },
      {
        "astId": 4429,
        "contract": "contracts/core/DepositHook.sol:DepositHook",
        "label": "_depositRecord",
        "offset": 0,
        "slot": "3",
        "type": "t_contract(ICollateralDepositRecord)6371"
      }
    ],
    "types": {
      "t_address": {
        "encoding": "inplace",
        "label": "address",
        "numberOfBytes": "20"
      },
      "t_contract(IAccountAccessController)6037": {
        "encoding": "inplace",
        "label": "contract IAccountAccessController",
        "numberOfBytes": "20"
      },
      "t_contract(ICollateralDepositRecord)6371": {
        "encoding": "inplace",
        "label": "contract ICollateralDepositRecord",
        "numberOfBytes": "20"
      }
    }
  }
}