{
  "_format": "hh-sol-artifact-1",
  "contractName": "AcquisitionRoyale",
  "sourceName": "contracts/AcquisitionRoyale.sol",
  "abi": [
    {
      "anonymous": false,
      "inputs": [
        {
          "indexed": false,
          "internalType": "address",
          "name": "acquireCost",
          "type": "address"
        }
      ],
      "name": "AcquireCostChanged",
      "type": "event"
    },
    {
      "anonymous": false,
      "inputs": [
        {
          "indexed": true,
          "internalType": "uint256",
          "name": "callerId",
          "type": "uint256"
        },
        {
          "indexed": true,
          "internalType": "uint256",
          "name": "targetId",
          "type": "uint256"
        },
        {
          "indexed": false,
          "internalType": "uint256",
          "name": "burnedId",
          "type": "uint256"
        }
      ],
      "name": "Acquisition",
      "type": "event"
    },
    {
      "anonymous": false,
      "inputs": [
        {
          "indexed": true,
          "internalType": "address",
          "name": "owner",
          "type": "address"
        },
        {
          "indexed": true,
          "internalType": "address",
          "name": "approved",
          "type": "address"
        },
        {
          "indexed": true,
          "internalType": "uint256",
          "name": "tokenId",
          "type": "uint256"
        }
      ],
      "name": "Approval",
      "type": "event"
    },
    {
      "anonymous": false,
      "inputs": [
        {
          "indexed": true,
          "internalType": "address",
          "name": "owner",
          "type": "address"
        },
        {
          "indexed": true,
          "internalType": "address",
          "name": "operator",
          "type": "address"
        },
        {
          "indexed": false,
          "internalType": "bool",
          "name": "approved",
          "type": "bool"
        }
      ],
      "name": "ApprovalForAll",
      "type": "event"
    },
    {
      "anonymous": false,
      "inputs": [
        {
          "indexed": true,
          "internalType": "uint256",
          "name": "callerId",
          "type": "uint256"
        },
        {
          "indexed": true,
          "internalType": "uint256",
          "name": "targetId",
          "type": "uint256"
        },
        {
          "indexed": false,
          "internalType": "uint256",
          "name": "rpSpent",
          "type": "uint256"
        },
        {
          "indexed": false,
          "internalType": "uint256",
          "name": "damage",
          "type": "uint256"
        }
      ],
      "name": "Compete",
      "type": "event"
    },
    {
      "anonymous": false,
      "inputs": [
        {
          "indexed": false,
          "internalType": "address",
          "name": "compete",
          "type": "address"
        }
      ],
      "name": "CompeteChanged",
      "type": "event"
    },
    {
      "anonymous": false,
      "inputs": [
        {
          "indexed": true,
          "internalType": "uint256",
          "name": "enterpriseId",
          "type": "uint256"
        },
        {
          "indexed": false,
          "internalType": "uint256",
          "name": "amount",
          "type": "uint256"
        }
      ],
      "name": "Deposit",
      "type": "event"
    },
    {
      "anonymous": false,
      "inputs": [
        {
          "indexed": false,
          "internalType": "address",
          "name": "branding",
          "type": "address"
        }
      ],
      "name": "FallbackBrandingChanged",
      "type": "event"
    },
    {
      "anonymous": false,
      "inputs": [
        {
          "indexed": false,
          "internalType": "uint256",
          "name": "startPrice",
          "type": "uint256"
        },
        {
          "indexed": false,
          "internalType": "uint256",
          "name": "endPrice",
          "type": "uint256"
        },
        {
          "indexed": false,
          "internalType": "uint256",
          "name": "startTime",
          "type": "uint256"
        },
        {
          "indexed": false,
          "internalType": "uint256",
          "name": "endTime",
          "type": "uint256"
        }
      ],
      "name": "FoundingPriceAndTimeChanged",
      "type": "event"
    },
    {
      "anonymous": false,
      "inputs": [
        {
          "indexed": true,
          "internalType": "uint256",
          "name": "enterpriseId",
          "type": "uint256"
        },
        {
          "indexed": false,
          "internalType": "uint256",
          "name": "amount",
          "type": "uint256"
        }
      ],
      "name": "Fundraise",
      "type": "event"
    },
    {
      "anonymous": false,
      "inputs": [
        {
          "indexed": false,
          "internalType": "address",
          "name": "fundraiseCost",
          "type": "address"
        }
      ],
      "name": "FundraiseCostChanged",
      "type": "event"
    },
    {
      "anonymous": false,
      "inputs": [
        {
          "indexed": false,
          "internalType": "uint256",
          "name": "startTime",
          "type": "uint256"
        }
      ],
      "name": "GameStartTimeChanged",
      "type": "event"
    },
    {
      "anonymous": false,
      "inputs": [
        {
          "indexed": false,
          "internalType": "uint256",
          "name": "acquisition",
          "type": "uint256"
        },
        {
          "indexed": false,
          "internalType": "uint256",
          "name": "merger",
          "type": "uint256"
        },
        {
          "indexed": false,
          "internalType": "uint256",
          "name": "revival",
          "type": "uint256"
        }
      ],
      "name": "ImmunityPeriodsChanged",
      "type": "event"
    },
    {
      "anonymous": false,
      "inputs": [
        {
          "indexed": false,
          "internalType": "address",
          "name": "mergeCost",
          "type": "address"
        }
      ],
      "name": "MergeCostChanged",
      "type": "event"
    },
    {
      "anonymous": false,
      "inputs": [
        {
          "indexed": true,
          "internalType": "uint256",
          "name": "callerId",
          "type": "uint256"
        },
        {
          "indexed": true,
          "internalType": "uint256",
          "name": "targetId",
          "type": "uint256"
        },
        {
          "indexed": false,
          "internalType": "uint256",
          "name": "burnedId",
          "type": "uint256"
        }
      ],
      "name": "Merger",
      "type": "event"
    },
    {
      "anonymous": false,
      "inputs": [
        {
          "indexed": false,
          "internalType": "uint256",
          "name": "percentage",
          "type": "uint256"
        }
      ],
      "name": "MergerBurnPercentageChanged",
      "type": "event"
    },
    {
      "anonymous": false,
      "inputs": [
        {
          "indexed": true,
          "internalType": "address",
          "name": "previousOwner",
          "type": "address"
        },
        {
          "indexed": true,
          "internalType": "address",
          "name": "newOwner",
          "type": "address"
        }
      ],
      "name": "OwnershipTransferred",
      "type": "event"
    },
    {
      "anonymous": false,
      "inputs": [
        {
          "indexed": false,
          "internalType": "uint256",
          "name": "max",
          "type": "uint256"
        },
        {
          "indexed": false,
          "internalType": "uint256",
          "name": "base",
          "type": "uint256"
        },
        {
          "indexed": false,
          "internalType": "uint256",
          "name": "acquisitions",
          "type": "uint256"
        },
        {
          "indexed": false,
          "internalType": "uint256",
          "name": "mergers",
          "type": "uint256"
        }
      ],
      "name": "PassiveRpPerDayChanged",
      "type": "event"
    },
    {
      "anonymous": false,
      "inputs": [
        {
          "indexed": true,
          "internalType": "uint256",
          "name": "enterpriseId",
          "type": "uint256"
        },
        {
          "indexed": false,
          "internalType": "address",
          "name": "branding",
          "type": "address"
        }
      ],
      "name": "Rebrand",
      "type": "event"
    },
    {
      "anonymous": false,
      "inputs": [
        {
          "indexed": true,
          "internalType": "uint256",
          "name": "enterpriseId",
          "type": "uint256"
        },
        {
          "indexed": false,
          "internalType": "string",
          "name": "name",
          "type": "string"
        }
      ],
      "name": "Rename",
      "type": "event"
    },
    {
      "anonymous": false,
      "inputs": [
        {
          "indexed": true,
          "internalType": "uint256",
          "name": "enterpriseId",
          "type": "uint256"
        }
      ],
      "name": "Revival",
      "type": "event"
    },
    {
      "anonymous": false,
      "inputs": [
        {
          "indexed": false,
          "internalType": "address",
          "name": "branding",
          "type": "address"
        },
        {
          "indexed": false,
          "internalType": "bool",
          "name": "supported",
          "type": "bool"
        }
      ],
      "name": "SupportForBrandingChanged",
      "type": "event"
    },
    {
      "anonymous": false,
      "inputs": [
        {
          "indexed": true,
          "internalType": "address",
          "name": "from",
          "type": "address"
        },
        {
          "indexed": true,
          "internalType": "address",
          "name": "to",
          "type": "address"
        },
        {
          "indexed": true,
          "internalType": "uint256",
          "name": "tokenId",
          "type": "uint256"
        }
      ],
      "name": "Transfer",
      "type": "event"
    },
    {
      "anonymous": false,
      "inputs": [
        {
          "indexed": true,
          "internalType": "uint256",
          "name": "enterpriseId",
          "type": "uint256"
        },
        {
          "indexed": false,
          "internalType": "uint256",
          "name": "amountAfterFee",
          "type": "uint256"
        },
        {
          "indexed": false,
          "internalType": "uint256",
          "name": "fee",
          "type": "uint256"
        }
      ],
      "name": "Withdrawal",
      "type": "event"
    },
    {
      "anonymous": false,
      "inputs": [
        {
          "indexed": false,
          "internalType": "uint256",
          "name": "percentage",
          "type": "uint256"
        }
      ],
      "name": "WithdrawalBurnPercentageChanged",
      "type": "event"
    },
    {
      "inputs": [
        {
          "internalType": "address",
          "name": "to",
          "type": "address"
        },
        {
          "internalType": "uint256",
          "name": "tokenId",
          "type": "uint256"
        }
      ],
      "name": "approve",
      "outputs": [],
      "stateMutability": "nonpayable",
      "type": "function"
    },
    {
      "inputs": [
        {
          "internalType": "address",
          "name": "owner",
          "type": "address"
        }
      ],
      "name": "balanceOf",
      "outputs": [
        {
          "internalType": "uint256",
          "name": "",
          "type": "uint256"
        }
      ],
      "stateMutability": "view",
      "type": "function"
    },
    {
      "inputs": [
        {
          "internalType": "uint256",
          "name": "_callerId",
          "type": "uint256"
        },
        {
          "internalType": "uint256",
          "name": "_targetId",
          "type": "uint256"
        },
        {
          "internalType": "uint256",
          "name": "_rpToSpend",
          "type": "uint256"
        }
      ],
      "name": "compete",
      "outputs": [],
      "stateMutability": "nonpayable",
      "type": "function"
    },
    {
      "inputs": [
        {
          "internalType": "uint256",
          "name": "_callerId",
          "type": "uint256"
        },
        {
          "internalType": "uint256",
          "name": "_targetId",
          "type": "uint256"
        },
        {
          "internalType": "uint256",
          "name": "_burnedId",
          "type": "uint256"
        }
      ],
      "name": "competeAndAcquire",
      "outputs": [],
      "stateMutability": "payable",
      "type": "function"
    },
    {
      "inputs": [
        {
          "internalType": "uint256",
          "name": "_enterpriseId",
          "type": "uint256"
        },
        {
          "internalType": "uint256",
          "name": "_amount",
          "type": "uint256"
        }
      ],
      "name": "deposit",
      "outputs": [],
      "stateMutability": "nonpayable",
      "type": "function"
    },
    {
      "inputs": [
        {
          "internalType": "uint256",
          "name": "_quantity",
          "type": "uint256"
        }
      ],
      "name": "foundAuctioned",
      "outputs": [],
      "stateMutability": "payable",
      "type": "function"
    },
    {
      "inputs": [
        {
          "internalType": "address",
          "name": "_recipient",
          "type": "address"
        }
      ],
      "name": "foundReserved",
      "outputs": [],
      "stateMutability": "nonpayable",
      "type": "function"
    },
    {
      "inputs": [
        {
          "internalType": "uint256",
          "name": "_enterpriseId",
          "type": "uint256"
        },
        {
          "internalType": "uint256",
          "name": "_amount",
          "type": "uint256"
        }
      ],
      "name": "fundraise",
      "outputs": [],
      "stateMutability": "payable",
      "type": "function"
    },
    {
      "inputs": [],
      "name": "getAcquireCost",
      "outputs": [
        {
          "internalType": "contract ICost",
          "name": "",
          "type": "address"
        }
      ],
      "stateMutability": "view",
      "type": "function"
    },
    {
      "inputs": [],
      "name": "getAcquisitionImmunityPeriod",
      "outputs": [
        {
          "internalType": "uint256",
          "name": "",
          "type": "uint256"
        }
      ],
      "stateMutability": "view",
      "type": "function"
    },
    {
      "inputs": [
        {
          "internalType": "uint256",
          "name": "tokenId",
          "type": "uint256"
        }
      ],
      "name": "getApproved",
      "outputs": [
        {
          "internalType": "address",
          "name": "",
          "type": "address"
        }
      ],
      "stateMutability": "view",
      "type": "function"
    },
    {
      "inputs": [
        {
          "internalType": "uint256",
          "name": "_enterpriseId",
          "type": "uint256"
        }
      ],
      "name": "getArtist",
      "outputs": [
        {
          "internalType": "string",
          "name": "",
          "type": "string"
        }
      ],
      "stateMutability": "view",
      "type": "function"
    },
    {
      "inputs": [],
      "name": "getAuctionCount",
      "outputs": [
        {
          "internalType": "uint256",
          "name": "",
          "type": "uint256"
        }
      ],
      "stateMutability": "view",
      "type": "function"
    },
    {
      "inputs": [],
      "name": "getAuctionPrice",
      "outputs": [
        {
          "internalType": "uint256",
          "name": "",
          "type": "uint256"
        }
      ],
      "stateMutability": "view",
      "type": "function"
    },
    {
      "inputs": [],
      "name": "getCompete",
      "outputs": [
        {
          "internalType": "contract ICompete",
          "name": "",
          "type": "address"
        }
      ],
      "stateMutability": "view",
      "type": "function"
    },
    {
      "inputs": [],
      "name": "getConsumables",
      "outputs": [
        {
          "internalType": "contract IERC1155Burnable",
          "name": "",
          "type": "address"
        }
      ],
      "stateMutability": "view",
      "type": "function"
    },
    {
      "inputs": [
        {
          "internalType": "uint256",
          "name": "_enterpriseId",
          "type": "uint256"
        }
      ],
      "name": "getEnterprise",
      "outputs": [
        {
          "components": [
            {
              "internalType": "string",
              "name": "name",
              "type": "string"
            },
            {
              "internalType": "uint256",
              "name": "rp",
              "type": "uint256"
            },
            {
              "internalType": "uint256",
              "name": "lastRpUpdateTime",
              "type": "uint256"
            },
            {
              "internalType": "uint256",
              "name": "acquisitionImmunityStartTime",
              "type": "uint256"
            },
            {
              "internalType": "uint256",
              "name": "mergerImmunityStartTime",
              "type": "uint256"
            },
            {
              "internalType": "uint256",
              "name": "revivalImmunityStartTime",
              "type": "uint256"
            },
            {
              "internalType": "uint256",
              "name": "competes",
              "type": "uint256"
            },
            {
              "internalType": "uint256",
              "name": "acquisitions",
              "type": "uint256"
            },
            {
              "internalType": "uint256",
              "name": "mergers",
              "type": "uint256"
            },
            {
              "internalType": "contract IBranding",
              "name": "branding",
              "type": "address"
            },
            {
              "internalType": "uint256",
              "name": "fundraiseRpTotal",
              "type": "uint256"
            },
            {
              "internalType": "uint256",
              "name": "fundraiseWethTotal",
              "type": "uint256"
            },
            {
              "internalType": "uint256",
              "name": "damageDealt",
              "type": "uint256"
            },
            {
              "internalType": "uint256",
              "name": "damageTaken",
              "type": "uint256"
            },
            {
              "internalType": "uint256",
              "name": "renames",
              "type": "uint256"
            },
            {
              "internalType": "uint256",
              "name": "rebrands",
              "type": "uint256"
            },
            {
              "internalType": "uint256",
              "name": "revives",
              "type": "uint256"
            }
          ],
          "internalType": "struct IAcquisitionRoyale.Enterprise",
          "name": "",
          "type": "tuple"
        }
      ],
      "stateMutability": "view",
      "type": "function"
    },
    {
      "inputs": [
        {
          "internalType": "uint256",
          "name": "_enterpriseId",
          "type": "uint256"
        }
      ],
      "name": "getEnterpriseVirtualBalance",
      "outputs": [
        {
          "internalType": "uint256",
          "name": "",
          "type": "uint256"
        }
      ],
      "stateMutability": "view",
      "type": "function"
    },
    {
      "inputs": [],
      "name": "getFallbackBranding",
      "outputs": [
        {
          "internalType": "contract IBranding",
          "name": "",
          "type": "address"
        }
      ],
      "stateMutability": "view",
      "type": "function"
    },
    {
      "inputs": [],
      "name": "getFoundingPriceAndTime",
      "outputs": [
        {
          "internalType": "uint256",
          "name": "_startPrice",
          "type": "uint256"
        },
        {
          "internalType": "uint256",
          "name": "_endPrice",
          "type": "uint256"
        },
        {
          "internalType": "uint256",
          "name": "_startTime",
          "type": "uint256"
        },
        {
          "internalType": "uint256",
          "name": "_endTime",
          "type": "uint256"
        }
      ],
      "stateMutability": "view",
      "type": "function"
    },
    {
      "inputs": [],
      "name": "getFreeCount",
      "outputs": [
        {
          "internalType": "uint256",
          "name": "",
          "type": "uint256"
        }
      ],
      "stateMutability": "view",
      "type": "function"
    },
    {
      "inputs": [],
      "name": "getFundraiseCost",
      "outputs": [
        {
          "internalType": "contract ICost",
          "name": "",
          "type": "address"
        }
      ],
      "stateMutability": "view",
      "type": "function"
    },
    {
      "inputs": [],
      "name": "getGameStartTime",
      "outputs": [
        {
          "internalType": "uint256",
          "name": "",
          "type": "uint256"
        }
      ],
      "stateMutability": "view",
      "type": "function"
    },
    {
      "inputs": [],
      "name": "getMaxAuctioned",
      "outputs": [
        {
          "internalType": "uint256",
          "name": "",
          "type": "uint256"
        }
      ],
      "stateMutability": "pure",
      "type": "function"
    },
    {
      "inputs": [],
      "name": "getMaxFree",
      "outputs": [
        {
          "internalType": "uint256",
          "name": "",
          "type": "uint256"
        }
      ],
      "stateMutability": "pure",
      "type": "function"
    },
    {
      "inputs": [],
      "name": "getMaxReserved",
      "outputs": [
        {
          "internalType": "uint256",
          "name": "",
          "type": "uint256"
        }
      ],
      "stateMutability": "pure",
      "type": "function"
    },
    {
      "inputs": [],
      "name": "getMergeCost",
      "outputs": [
        {
          "internalType": "contract ICost",
          "name": "",
          "type": "address"
        }
      ],
      "stateMutability": "view",
      "type": "function"
    },
    {
      "inputs": [],
      "name": "getMergerBurnPercentage",
      "outputs": [
        {
          "internalType": "uint256",
          "name": "",
          "type": "uint256"
        }
      ],
      "stateMutability": "view",
      "type": "function"
    },
    {
      "inputs": [],
      "name": "getMergerImmunityPeriod",
      "outputs": [
        {
          "internalType": "uint256",
          "name": "",
          "type": "uint256"
        }
      ],
      "stateMutability": "view",
      "type": "function"
    },
    {
      "inputs": [],
      "name": "getPassiveRpPerDay",
      "outputs": [
        {
          "internalType": "uint256",
          "name": "_max",
          "type": "uint256"
        },
        {
          "internalType": "uint256",
          "name": "_base",
          "type": "uint256"
        },
        {
          "internalType": "uint256",
          "name": "_acquisitions",
          "type": "uint256"
        },
        {
          "internalType": "uint256",
          "name": "_mergers",
          "type": "uint256"
        }
      ],
      "stateMutability": "view",
      "type": "function"
    },
    {
      "inputs": [],
      "name": "getReservedCount",
      "outputs": [
        {
          "internalType": "uint256",
          "name": "",
          "type": "uint256"
        }
      ],
      "stateMutability": "view",
      "type": "function"
    },
    {
      "inputs": [],
      "name": "getRevivalImmunityPeriod",
      "outputs": [
        {
          "internalType": "uint256",
          "name": "",
          "type": "uint256"
        }
      ],
      "stateMutability": "view",
      "type": "function"
    },
    {
      "inputs": [],
      "name": "getRunwayPoints",
      "outputs": [
        {
          "internalType": "contract IRunwayPoints",
          "name": "",
          "type": "address"
        }
      ],
      "stateMutability": "view",
      "type": "function"
    },
    {
      "inputs": [],
      "name": "getVerifier",
      "outputs": [
        {
          "internalType": "contract IMerkleProofVerifier",
          "name": "",
          "type": "address"
        }
      ],
      "stateMutability": "view",
      "type": "function"
    },
    {
      "inputs": [],
      "name": "getWETH",
      "outputs": [
        {
          "internalType": "contract IERC20",
          "name": "",
          "type": "address"
        }
      ],
      "stateMutability": "view",
      "type": "function"
    },
    {
      "inputs": [],
      "name": "getWithdrawalBurnPercentage",
      "outputs": [
        {
          "internalType": "uint256",
          "name": "",
          "type": "uint256"
        }
      ],
      "stateMutability": "view",
      "type": "function"
    },
    {
      "inputs": [
        {
          "internalType": "address",
          "name": "_user",
          "type": "address"
        }
      ],
      "name": "hasFoundedFree",
      "outputs": [
        {
          "internalType": "bool",
          "name": "",
          "type": "bool"
        }
      ],
      "stateMutability": "view",
      "type": "function"
    },
    {
      "inputs": [
        {
          "internalType": "string",
          "name": "_newName",
          "type": "string"
        },
        {
          "internalType": "string",
          "name": "_newSymbol",
          "type": "string"
        },
        {
          "internalType": "address",
          "name": "_newVerifier",
          "type": "address"
        },
        {
          "internalType": "address",
          "name": "_newWeth",
          "type": "address"
        },
        {
          "internalType": "address",
          "name": "_newRunwayPoints",
          "type": "address"
        },
        {
          "internalType": "address",
          "name": "_newConsumables",
          "type": "address"
        }
      ],
      "name": "initialize",
      "outputs": [],
      "stateMutability": "nonpayable",
      "type": "function"
    },
    {
      "inputs": [
        {
          "internalType": "address",
          "name": "owner",
          "type": "address"
        },
        {
          "internalType": "address",
          "name": "operator",
          "type": "address"
        }
      ],
      "name": "isApprovedForAll",
      "outputs": [
        {
          "internalType": "bool",
          "name": "",
          "type": "bool"
        }
      ],
      "stateMutability": "view",
      "type": "function"
    },
    {
      "inputs": [
        {
          "internalType": "contract IBranding",
          "name": "_branding",
          "type": "address"
        }
      ],
      "name": "isBrandingSupported",
      "outputs": [
        {
          "internalType": "bool",
          "name": "",
          "type": "bool"
        }
      ],
      "stateMutability": "view",
      "type": "function"
    },
    {
      "inputs": [
        {
          "internalType": "uint256",
          "name": "_enterpriseId",
          "type": "uint256"
        }
      ],
      "name": "isEnterpriseImmune",
      "outputs": [
        {
          "internalType": "bool",
          "name": "",
          "type": "bool"
        }
      ],
      "stateMutability": "view",
      "type": "function"
    },
    {
      "inputs": [
        {
          "internalType": "string",
          "name": "_name",
          "type": "string"
        }
      ],
      "name": "isNameInUse",
      "outputs": [
        {
          "internalType": "bool",
          "name": "",
          "type": "bool"
        }
      ],
      "stateMutability": "view",
      "type": "function"
    },
    {
      "inputs": [
        {
          "internalType": "uint256",
          "name": "_callerId",
          "type": "uint256"
        },
        {
          "internalType": "uint256",
          "name": "_targetId",
          "type": "uint256"
        },
        {
          "internalType": "uint256",
          "name": "_burnedId",
          "type": "uint256"
        }
      ],
      "name": "merge",
      "outputs": [],
      "stateMutability": "payable",
      "type": "function"
    },
    {
      "inputs": [],
      "name": "name",
      "outputs": [
        {
          "internalType": "string",
          "name": "",
          "type": "string"
        }
      ],
      "stateMutability": "view",
      "type": "function"
    },
    {
      "inputs": [],
      "name": "owner",
      "outputs": [
        {
          "internalType": "address",
          "name": "",
          "type": "address"
        }
      ],
      "stateMutability": "view",
      "type": "function"
    },
    {
      "inputs": [
        {
          "internalType": "uint256",
          "name": "tokenId",
          "type": "uint256"
        }
      ],
      "name": "ownerOf",
      "outputs": [
        {
          "internalType": "address",
          "name": "",
          "type": "address"
        }
      ],
      "stateMutability": "view",
      "type": "function"
    },
    {
      "inputs": [
        {
          "internalType": "uint256",
          "name": "_enterpriseId",
          "type": "uint256"
        },
        {
          "internalType": "contract IBranding",
          "name": "_branding",
          "type": "address"
        }
      ],
      "name": "rebrand",
      "outputs": [],
      "stateMutability": "nonpayable",
      "type": "function"
    },
    {
      "inputs": [
        {
          "internalType": "uint256",
          "name": "_enterpriseId",
          "type": "uint256"
        },
        {
          "internalType": "string",
          "name": "_name",
          "type": "string"
        }
      ],
      "name": "rename",
      "outputs": [],
      "stateMutability": "nonpayable",
      "type": "function"
    },
    {
      "inputs": [],
      "name": "renounceOwnership",
      "outputs": [],
      "stateMutability": "nonpayable",
      "type": "function"
    },
    {
      "inputs": [
        {
          "internalType": "uint256",
          "name": "_enterpriseId",
          "type": "uint256"
        }
      ],
      "name": "revive",
      "outputs": [],
      "stateMutability": "nonpayable",
      "type": "function"
    },
    {
      "inputs": [
        {
          "internalType": "address",
          "name": "from",
          "type": "address"
        },
        {
          "internalType": "address",
          "name": "to",
          "type": "address"
        },
        {
          "internalType": "uint256",
          "name": "tokenId",
          "type": "uint256"
        }
      ],
      "name": "safeTransferFrom",
      "outputs": [],
      "stateMutability": "nonpayable",
      "type": "function"
    },
    {
      "inputs": [
        {
          "internalType": "address",
          "name": "from",
          "type": "address"
        },
        {
          "internalType": "address",
          "name": "to",
          "type": "address"
        },
        {
          "internalType": "uint256",
          "name": "tokenId",
          "type": "uint256"
        },
        {
          "internalType": "bytes",
          "name": "_data",
          "type": "bytes"
        }
      ],
      "name": "safeTransferFrom",
      "outputs": [],
      "stateMutability": "nonpayable",
      "type": "function"
    },
    {
      "inputs": [
        {
          "internalType": "address",
          "name": "_newAcquireCost",
          "type": "address"
        }
      ],
      "name": "setAcquireCost",
      "outputs": [],
      "stateMutability": "nonpayable",
      "type": "function"
    },
    {
      "inputs": [
        {
          "internalType": "address",
          "name": "operator",
          "type": "address"
        },
        {
          "internalType": "bool",
          "name": "approved",
          "type": "bool"
        }
      ],
      "name": "setApprovalForAll",
      "outputs": [],
      "stateMutability": "nonpayable",
      "type": "function"
    },
    {
      "inputs": [
        {
          "internalType": "address",
          "name": "_newCompete",
          "type": "address"
        }
      ],
      "name": "setCompete",
      "outputs": [],
      "stateMutability": "nonpayable",
      "type": "function"
    },
    {
      "inputs": [
        {
          "internalType": "address",
          "name": "_newFallbackBranding",
          "type": "address"
        }
      ],
      "name": "setFallbackBranding",
      "outputs": [],
      "stateMutability": "nonpayable",
      "type": "function"
    },
    {
      "inputs": [
        {
          "internalType": "uint256",
          "name": "_newFoundingStartPrice",
          "type": "uint256"
        },
        {
          "internalType": "uint256",
          "name": "_newFoundingEndPrice",
          "type": "uint256"
        },
        {
          "internalType": "uint256",
          "name": "_newFoundingStartTime",
          "type": "uint256"
        },
        {
          "internalType": "uint256",
          "name": "_newFoundingEndTime",
          "type": "uint256"
        }
      ],
      "name": "setFoundingPriceAndTime",
      "outputs": [],
      "stateMutability": "nonpayable",
      "type": "function"
    },
    {
      "inputs": [
        {
          "internalType": "address",
          "name": "_newFundraiseCost",
          "type": "address"
        }
      ],
      "name": "setFundraiseCost",
      "outputs": [],
      "stateMutability": "nonpayable",
      "type": "function"
    },
    {
      "inputs": [
        {
          "internalType": "uint256",
          "name": "_startTime",
          "type": "uint256"
        }
      ],
      "name": "setGameStartTime",
      "outputs": [],
      "stateMutability": "nonpayable",
      "type": "function"
    },
    {
      "inputs": [
        {
          "internalType": "uint256",
          "name": "_acquisitionImmunityPeriod",
          "type": "uint256"
        },
        {
          "internalType": "uint256",
          "name": "_mergerImmunityPeriod",
          "type": "uint256"
        },
        {
          "internalType": "uint256",
          "name": "_revivalImmunityPeriod",
          "type": "uint256"
        }
      ],
      "name": "setImmunityPeriods",
      "outputs": [],
      "stateMutability": "nonpayable",
      "type": "function"
    },
    {
      "inputs": [
        {
          "internalType": "address",
          "name": "_newMergeCost",
          "type": "address"
        }
      ],
      "name": "setMergeCost",
      "outputs": [],
      "stateMutability": "nonpayable",
      "type": "function"
    },
    {
      "inputs": [
        {
          "internalType": "uint256",
          "name": "_percentage",
          "type": "uint256"
        }
      ],
      "name": "setMergerBurnPercentage",
      "outputs": [],
      "stateMutability": "nonpayable",
      "type": "function"
    },
    {
      "inputs": [
        {
          "internalType": "uint256",
          "name": "_newMax",
          "type": "uint256"
        },
        {
          "internalType": "uint256",
          "name": "_newBase",
          "type": "uint256"
        },
        {
          "internalType": "uint256",
          "name": "_newAcquisitions",
          "type": "uint256"
        },
        {
          "internalType": "uint256",
          "name": "_newMergers",
          "type": "uint256"
        }
      ],
      "name": "setPassiveRpPerDay",
      "outputs": [],
      "stateMutability": "nonpayable",
      "type": "function"
    },
    {
      "inputs": [
        {
          "internalType": "address",
          "name": "_branding",
          "type": "address"
        },
        {
          "internalType": "bool",
          "name": "_support",
          "type": "bool"
        }
      ],
      "name": "setSupportForBranding",
      "outputs": [],
      "stateMutability": "nonpayable",
      "type": "function"
    },
    {
      "inputs": [
        {
          "internalType": "address",
          "name": "_newVerifier",
          "type": "address"
        }
      ],
      "name": "setVerifier",
      "outputs": [],
      "stateMutability": "nonpayable",
      "type": "function"
    },
    {
      "inputs": [
        {
          "internalType": "uint256",
          "name": "_percentage",
          "type": "uint256"
        }
      ],
      "name": "setWithdrawalBurnPercentage",
      "outputs": [],
      "stateMutability": "nonpayable",
      "type": "function"
    },
    {
      "inputs": [
        {
          "internalType": "bytes4",
          "name": "interfaceId",
          "type": "bytes4"
        }
      ],
      "name": "supportsInterface",
      "outputs": [
        {
          "internalType": "bool",
          "name": "",
          "type": "bool"
        }
      ],
      "stateMutability": "view",
      "type": "function"
    },
    {
      "inputs": [],
      "name": "symbol",
      "outputs": [
        {
          "internalType": "string",
          "name": "",
          "type": "string"
        }
      ],
      "stateMutability": "view",
      "type": "function"
    },
    {
      "inputs": [
        {
          "internalType": "uint256",
          "name": "index",
          "type": "uint256"
        }
      ],
      "name": "tokenByIndex",
      "outputs": [
        {
          "internalType": "uint256",
          "name": "",
          "type": "uint256"
        }
      ],
      "stateMutability": "view",
      "type": "function"
    },
    {
      "inputs": [
        {
          "internalType": "address",
          "name": "owner",
          "type": "address"
        },
        {
          "internalType": "uint256",
          "name": "index",
          "type": "uint256"
        }
      ],
      "name": "tokenOfOwnerByIndex",
      "outputs": [
        {
          "internalType": "uint256",
          "name": "",
          "type": "uint256"
        }
      ],
      "stateMutability": "view",
      "type": "function"
    },
    {
      "inputs": [
        {
          "internalType": "uint256",
          "name": "_enterpriseId",
          "type": "uint256"
        }
      ],
      "name": "tokenURI",
      "outputs": [
        {
          "internalType": "string",
          "name": "",
          "type": "string"
        }
      ],
      "stateMutability": "view",
      "type": "function"
    },
    {
      "inputs": [],
      "name": "totalSupply",
      "outputs": [
        {
          "internalType": "uint256",
          "name": "",
          "type": "uint256"
        }
      ],
      "stateMutability": "view",
      "type": "function"
    },
    {
      "inputs": [
        {
          "internalType": "address",
          "name": "from",
          "type": "address"
        },
        {
          "internalType": "address",
          "name": "to",
          "type": "address"
        },
        {
          "internalType": "uint256",
          "name": "tokenId",
          "type": "uint256"
        }
      ],
      "name": "transferFrom",
      "outputs": [],
      "stateMutability": "nonpayable",
      "type": "function"
    },
    {
      "inputs": [
        {
          "internalType": "address",
          "name": "newOwner",
          "type": "address"
        }
      ],
      "name": "transferOwnership",
      "outputs": [],
      "stateMutability": "nonpayable",
      "type": "function"
    },
    {
      "inputs": [
        {
          "internalType": "uint256",
          "name": "_enterpriseId",
          "type": "uint256"
        },
        {
          "internalType": "uint256",
          "name": "_amount",
          "type": "uint256"
        }
      ],
      "name": "withdraw",
      "outputs": [],
      "stateMutability": "nonpayable",
      "type": "function"
    }
  ],
  "bytecode": "0x608060405234801561001057600080fd5b50615da980620000216000396000f3fe60806040526004361061043c5760003560e01c8063834670bc11610234578063b9670a711161012e578063db104973116100b6578063e985e9c51161007a578063e985e9c514610c9b578063edbc9eb614610ce4578063ef4e77a914610d1e578063f2fde38b14610d40578063fd73613c14610d6057600080fd5b8063db10497314610bfc578063ded90bfd14610c1c578063e052eaa014610c3b578063e2bbb15814610c5b578063e56f2fe414610c7b57600080fd5b8063c87b56dd116100fd578063c87b56dd14610b67578063cae5f11e14610b87578063ccf84d7f14610ba6578063d8ddfd4e14610bbc578063da2fe7c914610bdc57600080fd5b8063b9670a7114610afc578063bee5f3f214610b1c578063c44e664014610b3b578063c4f4842f14610b5157600080fd5b8063a22cb465116101bc578063b12e272911610180578063b12e272914610a69578063b632f87314610a88578063b673406914610a9d578063b88d4fde14610abd578063b91d144d14610add57600080fd5b8063a22cb465146109c0578063a599aa46146109e0578063a97bbecd14610a00578063aa31d5c714610a15578063ad01a9d214610a5357600080fd5b80638c04e6a1116102035780638c04e6a1146109425780638da5cb5b1461096157806395d89b411461097f578063995fb90814610994578063a0da228a146109aa57600080fd5b8063834670bc146108cf57806388910ae2146108ef57806388cc852a146109025780638baecc211461092257600080fd5b80633ec2d836116103455780634f1a5cb1116102cd5780636352211e116102915780636352211e1461083a57806370a082311461085a578063715018a61461087a5780637cddf3de1461088f578063811dd0e2146108af57600080fd5b80634f1a5cb1146107a85780634f6ccce7146107c75780635437988d146107e75780635a2e4bd9146108075780635dfbb29b1461081a57600080fd5b806346657fe91161031457806346657fe9146107325780634675a262146107515780634a8634a1146107675780634b50c9f01461077d5780634bd25c6f1461079357600080fd5b80633ec2d836146106bf57806342842e0e146106df57806344021af2146106ff578063441a3e701461071257600080fd5b806318e906b9116103c857806323b872dd1161039757806323b872dd1461062057806325cd3b8c146106405780632769c89a1461065f5780632f11577d1461067f5780632f745c591461069f57600080fd5b806318e906b9146105a05780631cb76b25146105c05780631e0c62eb146105e0578063212542111461060057600080fd5b8063095ea7b31161040f578063095ea7b3146104e55780630b68a9d3146105055780630dbccad81461053257806315ef30611461056c57806318160ddd1461058b57600080fd5b806301ffc9a71461044157806303cf0f161461047657806306fdde031461048b578063081812fc146104ad575b600080fd5b34801561044d57600080fd5b5061046161045c36600461558b565b610d80565b60405190151581526020015b60405180910390f35b6104896104843660046157d7565b610dab565b005b34801561049757600080fd5b506104a0610f47565b60405161046d919061591c565b3480156104b957600080fd5b506104cd6104c8366004615717565b610fd9565b6040516001600160a01b03909116815260200161046d565b3480156104f157600080fd5b50610489610500366004615542565b61106e565b34801561051157600080fd5b50610525610520366004615717565b611184565b60405161046d9190615a8c565b34801561053e57600080fd5b5061046161054d3660046153fd565b6001600160a01b03166000908152610144602052604090205460ff1690565b34801561057857600080fd5b506113885b60405190815260200161046d565b34801561059757600080fd5b5060fd5461057d565b3480156105ac57600080fd5b506104896105bb3660046153fd565b611379565b3480156105cc57600080fd5b506104896105db3660046153fd565b611521565b3480156105ec57600080fd5b506104896105fb3660046153fd565b6115a3565b34801561060c57600080fd5b5061048961061b366004615749565b611625565b34801561062c57600080fd5b5061048961063b366004615453565b6117ca565b34801561064c57600080fd5b5061013d546001600160a01b03166104cd565b34801561066b57600080fd5b5061048961067a366004615717565b6117fb565b34801561068b57600080fd5b5061048961069a3660046157d7565b6118ad565b3480156106ab57600080fd5b5061057d6106ba366004615542565b61192f565b3480156106cb57600080fd5b506104896106da36600461576e565b6119c5565b3480156106eb57600080fd5b506104896106fa366004615453565b611bcb565b61048961070d366004615717565b611be6565b34801561071e57600080fd5b5061048961072d3660046157b5565b611e3d565b34801561073e57600080fd5b5061013b546001600160a01b03166104cd565b34801561075d57600080fd5b506101305461057d565b34801561077357600080fd5b5061012e5461057d565b34801561078957600080fd5b5061012d5461057d565b34801561079f57600080fd5b5061057d6120ed565b3480156107b457600080fd5b50610143546001600160a01b03166104cd565b3480156107d357600080fd5b5061057d6107e2366004615717565b612196565b3480156107f357600080fd5b506104896108023660046153fd565b612229565b6104896108153660046157d7565b612276565b34801561082657600080fd5b506104896108353660046157d7565b612594565b34801561084657600080fd5b506104cd610855366004615717565b6126bd565b34801561086657600080fd5b5061057d6108753660046153fd565b612734565b34801561088657600080fd5b506104896127bb565b34801561089b57600080fd5b506104896108aa3660046153fd565b6127f1565b3480156108bb57600080fd5b506104a06108ca366004615717565b612873565b3480156108db57600080fd5b506104896108ea366004615514565b61299d565b6104896108fd3660046157b5565b612a34565b34801561090e57600080fd5b5061048961091d3660046153fd565b612cbe565b34801561092e57600080fd5b5061048961093d366004615717565b612e28565b34801561094e57600080fd5b50610142546001600160a01b03166104cd565b34801561096d57600080fd5b506065546001600160a01b03166104cd565b34801561098b57600080fd5b506104a0613008565b3480156109a057600080fd5b506101485461057d565b3480156109b657600080fd5b506101325461057d565b3480156109cc57600080fd5b506104896109db366004615514565b613017565b3480156109ec57600080fd5b506104896109fb366004615831565b6130dc565b348015610a0c57600080fd5b5061232861057d565b348015610a2157600080fd5b50610133546101345461013554610136545b60408051948552602085019390935291830152606082015260800161046d565b348015610a5f57600080fd5b506101495461057d565b348015610a7557600080fd5b50610140546001600160a01b03166104cd565b348015610a9457600080fd5b506103e861057d565b348015610aa957600080fd5b50610489610ab8366004615831565b61320b565b348015610ac957600080fd5b50610489610ad8366004615494565b613292565b348015610ae957600080fd5b50610141546001600160a01b03166104cd565b348015610b0857600080fd5b5061057d610b17366004615717565b6132c4565b348015610b2857600080fd5b5061013f546001600160a01b03166104cd565b348015610b4757600080fd5b5061014a5461057d565b348015610b5d57600080fd5b506101315461057d565b348015610b7357600080fd5b506104a0610b82366004615717565b6133dc565b348015610b9357600080fd5b5061013c546001600160a01b03166104cd565b348015610bb257600080fd5b5061012f5461057d565b348015610bc857600080fd5b50610489610bd7366004615717565b613485565b348015610be857600080fd5b50610489610bf73660046153fd565b61352f565b348015610c0857600080fd5b50610461610c17366004615717565b6135b1565b348015610c2857600080fd5b5061013e546001600160a01b03166104cd565b348015610c4757600080fd5b50610461610c563660046155c5565b613645565b348015610c6757600080fd5b50610489610c763660046157b5565b613671565b348015610c8757600080fd5b50610489610c96366004615668565b613799565b348015610ca757600080fd5b50610461610cb636600461541a565b6001600160a01b03918216600090815260ce6020908152604080832093909416825291909152205460ff1690565b348015610cf057600080fd5b50610461610cff3660046153fd565b6001600160a01b03166000908152610146602052604090205460ff1690565b348015610d2a57600080fd5b5061013754610138546101395461013a54610a33565b348015610d4c57600080fd5b50610489610d5b3660046153fd565b6138a2565b348015610d6c57600080fd5b50610489610d7b366004615717565b61393d565b60006001600160e01b0319821663780e9d6360e01b1480610da55750610da5826139e7565b92915050565b610db3613a37565b610dbe338484613a8d565b82811480610dcb57508181145b610e125760405162461bcd60e51b81526020600482015260136024820152721a5b9d985b1a5908189d5c9b881d185c99d95d606a1b60448201526064015b60405180910390fd5b610e1b83613b52565b610e2482613b52565b600082815261014760205260408082206001015461013e549151632724241960e01b81526004810187905260248101869052604481018290529092916001600160a01b03169063272424199060640160206040518083038186803b158015610e8b57600080fd5b505afa158015610e9f573d6000803e3d6000fd5b505050506040513d601f19601f82011682018060405250810190610ec39190615730565b60008681526101476020526040902060010154909150811115610f285760405162461bcd60e51b815260206004820152601c60248201527f696e73756666696369656e7420525020666f72207370656e64696e67000000006044820152606401610e09565b610f3485858484613b7c565b610f4085858534613cf6565b5050505050565b606060c98054610f5690615c68565b80601f0160208091040260200160405190810160405280929190818152602001828054610f8290615c68565b8015610fcf5780601f10610fa457610100808354040283529160200191610fcf565b820191906000526020600020905b815481529060010190602001808311610fb257829003601f168201915b5050505050905090565b600081815260cb60205260408120546001600160a01b03166110525760405162461bcd60e51b815260206004820152602c60248201527f4552433732313a20617070726f76656420717565727920666f72206e6f6e657860448201526b34b9ba32b73a103a37b5b2b760a11b6064820152608401610e09565b50600090815260cd60205260409020546001600160a01b031690565b6000611079826126bd565b9050806001600160a01b0316836001600160a01b031614156110e75760405162461bcd60e51b815260206004820152602160248201527f4552433732313a20617070726f76616c20746f2063757272656e74206f776e656044820152603960f91b6064820152608401610e09565b336001600160a01b038216148061110357506111038133610cb6565b6111755760405162461bcd60e51b815260206004820152603860248201527f4552433732313a20617070726f76652063616c6c6572206973206e6f74206f7760448201527f6e6572206e6f7220617070726f76656420666f7220616c6c00000000000000006064820152608401610e09565b61117f8383613f56565b505050565b61121460405180610220016040528060608152602001600081526020016000815260200160008152602001600081526020016000815260200160008152602001600081526020016000815260200160006001600160a01b03168152602001600081526020016000815260200160008152602001600081526020016000815260200160008152602001600081525090565b60008281526101476020526040908190208151610220810190925280548290829061123e90615c68565b80601f016020809104026020016040519081016040528092919081815260200182805461126a90615c68565b80156112b75780601f1061128c576101008083540402835291602001916112b7565b820191906000526020600020905b81548152906001019060200180831161129a57829003601f168201915b505050918352505060018201546020820152600282015460408201526003820154606082015260048201546080820152600582015460a0820152600682015460c0820152600782015460e0820152600882015461010082015260098201546001600160a01b0316610120820152600a820154610140820152600b820154610160820152600c820154610180820152600d8201546101a0820152600e8201546101c0820152600f8201546101e08201526010909101546102009091015292915050565b6065546001600160a01b031633146113a35760405162461bcd60e51b8152600401610e09906159cf565b61013c546001600160a01b031663a9059cbb6113c76065546001600160a01b031690565b61013c546040516370a0823160e01b81523060048201526001600160a01b03909116906370a082319060240160206040518083038186803b15801561140b57600080fd5b505afa15801561141f573d6000803e3d6000fd5b505050506040513d601f19601f820116820180604052508101906114439190615730565b6040516001600160e01b031960e085901b1681526001600160a01b0390921660048301526024820152604401602060405180830381600087803b15801561148957600080fd5b505af115801561149d573d6000803e3d6000fd5b505050506040513d601f19601f820116820180604052508101906114c1919061556e565b506114cb81613fc4565b61014380546001600160a01b0319166001600160a01b0383169081179091556040519081527f85fb0245c012fdc041f14d972b70cbe77b16ec94695ea6e04934cc22233ec04e906020015b60405180910390a150565b6065546001600160a01b0316331461154b5760405162461bcd60e51b8152600401610e09906159cf565b61155481613fc4565b61014080546001600160a01b0319166001600160a01b0383169081179091556040519081527f37e83f963fdc73ec4d87b911fd3df287b8128da07b8e528ef1ba210d834ed5b990602001611516565b6065546001600160a01b031633146115cd5760405162461bcd60e51b8152600401610e09906159cf565b6115d681613fc4565b61013e80546001600160a01b0319166001600160a01b0383169081179091556040519081527ff3487fdf291cb85990e9a6e9a53af2f377d4797747b7e75b220d599c27916af890602001611516565b600260015414156116485760405162461bcd60e51b8152600401610e0990615a55565b60026001556116573383614009565b6001600160a01b0381166000908152610146602052604090205460ff166116b95760405162461bcd60e51b8152602060048201526016602482015275189c985b991a5b99c81b9bdd081cdd5c1c1bdc9d195960521b6044820152606401610e09565b6065546001600160a01b03163314611743576116d633600161406d565b61014254604051637a94c56560e11b815233600482015260016024820181905260448201526001600160a01b039091169063f5298aca90606401600060405180830381600087803b15801561172a57600080fd5b505af115801561173e573d6000803e3d6000fd5b505050505b6000828152610147602052604081206009810180546001600160a01b0319166001600160a01b038516179055600f0180549161177e83615c9d565b90915550506040516001600160a01b038216815282907fcb741bc1d5d1af59b39b7e90af970188cff167aac5e6e76ba6db4de1b87a6349906020015b60405180910390a2505060018055565b6117d4338261413e565b6117f05760405162461bcd60e51b8152600401610e0990615a04565b61117f838383614231565b6065546001600160a01b031633146118255760405162461bcd60e51b8152600401610e09906159cf565b61012d5415611877574261012d54116118775760405162461bcd60e51b815260206004820152601460248201527319d85b5948185b1c9958591e481cdd185c9d195960621b6044820152606401610e09565b61012d8190556040518181527f14c7fbc842459dde1b24f251698f7fb7199a00ea01416f4f55b07df7f6b7dadb90602001611516565b6065546001600160a01b031633146118d75760405162461bcd60e51b8152600401610e09906159cf565b61013083905561013182905561013281905560408051848152602081018490529081018290527f06783b85960f194755ca4c8e6b76c572aa482cff730050ed1ccfa244c4483d259060600160405180910390a1505050565b600061193a83612734565b821061199c5760405162461bcd60e51b815260206004820152602b60248201527f455243373231456e756d657261626c653a206f776e657220696e646578206f7560448201526a74206f6620626f756e647360a81b6064820152608401610e09565b506001600160a01b0391909116600090815260fb60209081526040808320938352929052205490565b600260015414156119e85760405162461bcd60e51b8152600401610e0990615a55565b60026001556065546001600160a01b03163314611b5757611a093383614009565b611a1433600061406d565b61014581604051611a25919061588f565b9081526040519081900360200190205460ff1615611a735760405162461bcd60e51b815260206004820152600b60248201526a6e616d6520696e2075736560a81b6044820152606401610e09565b611a7c816143dc565b611ab75760405162461bcd60e51b815260206004820152600c60248201526b696e76616c6964206e616d6560a01b6044820152606401610e09565b61014254604051637a94c56560e11b815233600482015260006024820152600160448201526001600160a01b039091169063f5298aca90606401600060405180830381600087803b158015611b0b57600080fd5b505af1158015611b1f573d6000803e3d6000fd5b50505050600161014582604051611b36919061588f565b908152604051908190036020019020805491151560ff199092169190911790555b6000828152610147602090815260409091208251611b77928401906152ff565b50600082815261014760205260408120600e01805491611b9683615c9d565b9190505550817fa2a830bcb30471f97c2e9235f9d10911a61667e14c2f06191599a0ee1f861167826040516117ba919061591c565b61117f83838360405180602001604052806000815250613292565b60026001541415611c095760405162461bcd60e51b8152600401610e0990615a55565b6002600155611c166145eb565b60008111611c5e5760405162461bcd60e51b8152602060048201526015602482015274616d6f756e742063616e6e6f74206265207a65726f60581b6044820152606401610e09565b611c788161014a54611c709190615bda565b61232861465a565b6065546001600160a01b03163314611d705761013654421115611cd25760405162461bcd60e51b8152602060048201526012602482015271199bdd5b991a5b99c81a185cc8195b99195960721b6044820152606401610e09565b600081611cdd6120ed565b611ce79190615c06565b9050611cf3348261469a565b6065546040516001600160a01b039091169082156108fc029083906000818181858888f19350505050158015611d2d573d6000803e3d6000fd5b5080341115611d6e57336108fc611d448334615c25565b6040518115909202916000818181858888f19350505050158015611d6c573d6000803e3d6000fd5b505b505b60005b81811015611e355761014a80549081906000611d8e83615c9d565b9190505550611d9d33826146df565b611da6816146f9565b604051602001611db691906158ab565b60408051601f19818403018152918152600083815261014760209081529190208251611de7939192909101906152ff565b5060009081526101476020526040902042600582015561014354600990910180546001600160a01b0319166001600160a01b0390921691909117905580611e2d81615c9d565b915050611d73565b505060018055565b60026001541415611e605760405162461bcd60e51b8152600401610e0990615a55565b6002600155611e6d613a37565b611e773383614009565b611e8082613b52565b60008281526101476020526040902060010154811115611ee25760405162461bcd60e51b815260206004820152601e60248201527f696e73756666696369656e7420525020666f72207769746864726177616c00006044820152606401610e09565b611eec82826147f7565b60006402540be40061012f5483611f039190615c06565b611f0d9190615bf2565b9050611f198183615c25565b61013d546040516370a0823160e01b81523060048201529193506000916001600160a01b03909116906370a082319060240160206040518083038186803b158015611f6357600080fd5b505afa158015611f77573d6000803e3d6000fd5b505050506040513d601f19601f82011682018060405250810190611f9b9190615730565b9050808311156120215761013d546001600160a01b03166340c10f1930611fc28487615c25565b6040516001600160e01b031960e085901b1681526001600160a01b0390921660048301526024820152604401600060405180830381600087803b15801561200857600080fd5b505af115801561201c573d6000803e3d6000fd5b505050505b61013d5460405163a9059cbb60e01b8152336004820152602481018590526001600160a01b039091169063a9059cbb90604401602060405180830381600087803b15801561206e57600080fd5b505af1158015612082573d6000803e3d6000fd5b505050506040513d601f19601f820116820180604052508101906120a6919061556e565b50604080518481526020810184905285917f4de79efceb38f14026173a22fb2113555409a7a88343c2a780064d2ce0a00a8791015b60405180910390a25050600180555050565b610135546101365460009182916121049190615c25565b61013454610133546121169190615c25565b6121209190615bf2565b61212b906001615bda565b6101355490915060009061213f9042615c25565b6121499083615c06565b90506000610133600001548211156121675750506101345492915050565b61013354612176908390615c25565b610134549091508110612189578061218e565b610134545b935050505090565b60006121a160fd5490565b82106122045760405162461bcd60e51b815260206004820152602c60248201527f455243373231456e756d657261626c653a20676c6f62616c20696e646578206f60448201526b7574206f6620626f756e647360a01b6064820152608401610e09565b60fd828154811061221757612217615d0e565b90600052602060002001549050919050565b6065546001600160a01b031633146122535760405162461bcd60e51b8152600401610e09906159cf565b61013b80546001600160a01b0319166001600160a01b0392909216919091179055565b600260015414156122995760405162461bcd60e51b8152600401610e0990615a55565b60026001556122a6613a37565b6122b133848461487c565b828114806122be57508181145b6123005760405162461bcd60e51b81526020600482015260136024820152721a5b9d985b1a5908189d5c9b881d185c99d95d606a1b6044820152606401610e09565b61230983613b52565b61231282613b52565b61014054604051630783369160e01b81526004810185905260248101849052600160448201526000916001600160a01b031690630783369190606401606060405180830381600087803b15801561236857600080fd5b505af115801561237c573d6000803e3d6000fd5b505050506040513d601f19601f820116820180604052508101906123a09190615803565b509150506123ae348261469a565b6065546040516001600160a01b039091169082156108fc029083906000818181858888f193505050501580156123e8573d6000803e3d6000fd5b508034111561242957336108fc6123ff8334615c25565b6040518115909202916000818181858888f19350505050158015612427573d6000803e3d6000fd5b505b612432826148f0565b60008483146124415784612443565b835b61012e5460008581526101476020526040812060010154929350916402540be4009161246e91615c06565b6124789190615bf2565b612483906001615bda565b600085815261014760205260409020600101549091508111156124b85760008481526101476020526040812060010155612511565b600084815261014760205260409020600101546124d6908290615c25565b60008381526101476020526040812060010180549091906124f8908490615bda565b9091555050600084815261014760205260408120600101555b60008281526101476020526040812060080180549161252f83615c9d565b909155505060008281526101476020526040908190204260049091015551859087907fb7e01c6a46bb9c4341017f5054c2119d132fa16e3744ee2c9cac7d3c70ed42ca906125809088815260200190565b60405180910390a350506001805550505050565b61259c613a37565b6125a7338484613a8d565b6125b083613b52565b6125b982613b52565b6000838152610147602052604090206001015481111561261b5760405162461bcd60e51b815260206004820152601c60248201527f696e73756666696369656e7420525020666f72207370656e64696e67000000006044820152606401610e09565b61013e54604051634d265dc960e11b81526004810185905260248101849052604481018390526000916001600160a01b031690639a4cbb9290606401602060405180830381600087803b15801561267157600080fd5b505af1158015612685573d6000803e3d6000fd5b505050506040513d601f19601f820116820180604052508101906126a99190615730565b90506126b784848385613b7c565b50505050565b600081815260cb60205260408120546001600160a01b031680610da55760405162461bcd60e51b815260206004820152602960248201527f4552433732313a206f776e657220717565727920666f72206e6f6e657869737460448201526832b73a103a37b5b2b760b91b6064820152608401610e09565b60006001600160a01b03821661279f5760405162461bcd60e51b815260206004820152602a60248201527f4552433732313a2062616c616e636520717565727920666f7220746865207a65604482015269726f206164647265737360b01b6064820152608401610e09565b506001600160a01b0316600090815260cc602052604090205490565b6065546001600160a01b031633146127e55760405162461bcd60e51b8152600401610e09906159cf565b6127ef6000614997565b565b6065546001600160a01b0316331461281b5760405162461bcd60e51b8152600401610e09906159cf565b61282481613fc4565b61014180546001600160a01b0319166001600160a01b0383169081179091556040519081527f26b8decaa0099c6be48c7d7f502658c032e0d9b75bfa6a50c75e974920fb30fe90602001611516565b606061287e826149e9565b612912576000828152610147602052604080822060090154815163e094826b60e01b815291516001600160a01b039091169263e094826b9260048082019391829003018186803b1580156128d157600080fd5b505afa1580156128e5573d6000803e3d6000fd5b505050506040513d6000823e601f3d908101601f1916820160405261290d91908101906155fa565b610da5565b61014360009054906101000a90046001600160a01b03166001600160a01b031663e094826b6040518163ffffffff1660e01b815260040160006040518083038186803b15801561296157600080fd5b505afa158015612975573d6000803e3d6000fd5b505050506040513d6000823e601f3d908101601f19168201604052610da591908101906155fa565b6065546001600160a01b031633146129c75760405162461bcd60e51b8152600401610e09906159cf565b6129d082613fc4565b6001600160a01b03821660008181526101466020908152604091829020805460ff19168515159081179091558251938452908301527f3ef3f757a65a3f6f93be40f7a6710ca68255a201f0ddfe41d275c39d4adc0d73910160405180910390a15050565b60026001541415612a575760405162461bcd60e51b8152600401610e0990615a55565b6002600155612a64613a37565b612a6e3383614009565b612a7782613b52565b61014154604051630783369160e01b81526004810184905260248101849052604481018390526000916001600160a01b031690630783369190606401606060405180830381600087803b158015612acd57600080fd5b505af1158015612ae1573d6000803e3d6000fd5b505050506040513d601f19601f82011682018060405250810190612b059190615803565b50915060009050670de0b6b3a7640000612b1f8385615c06565b612b299190615bf2565b9050612b35348261469a565b6065546040516001600160a01b039091169082156108fc029083906000818181858888f19350505050158015612b6f573d6000803e3d6000fd5b5080341115612bb057336108fc612b868334615c25565b6040518115909202916000818181858888f19350505050158015612bae573d6000803e3d6000fd5b505b61013d546040516340c10f1960e01b8152306004820152602481018590526001600160a01b03909116906340c10f1990604401600060405180830381600087803b158015612bfd57600080fd5b505af1158015612c11573d6000803e3d6000fd5b5050506000858152610147602052604081206001018054869350909190612c39908490615bda565b9091555050600084815261014760205260408120600a018054859290612c60908490615bda565b9091555050600084815261014760205260408120600b018054839290612c87908490615bda565b909155505060405183815284907fa27fcb99ea44c185b67573af8a2c7ad4240f1e9f5bc20849d0b324c9e7b22a88906020016120db565b6065546001600160a01b03163314612ce85760405162461bcd60e51b8152600401610e09906159cf565b60026001541415612d0b5760405162461bcd60e51b8152600401610e0990615a55565b6002600155610149546000906113881115612d4d5761014954612d3090612328615bda565b61014980549192506000612d4383615c9d565b9190505550612d91565b612d5c610148546103e861465a565b61014854612d6e611388612328615bda565b612d789190615bda565b61014880549192506000612d8b83615c9d565b91905055505b612d9b82826146df565b612da4816146f9565b604051602001612db491906158ab565b60408051601f19818403018152918152600083815261014760209081529190208251612de5939192909101906152ff565b5060009081526101476020526040902042600582015561014354600990910180546001600160a01b0319166001600160a01b039092169190911790555060018055565b60026001541415612e4b5760405162461bcd60e51b8152600401610e0990615a55565b6002600155612e58613a37565b600081815260cb60205260409020546001600160a01b031615612ebd5760405162461bcd60e51b815260206004820152601960248201527f656e746572707269736520616c726561647920657869737473000000000000006044820152606401610e09565b612ec681614ad3565b612f125760405162461bcd60e51b815260206004820152601e60248201527f656e746572707269736520686173206e6f74206265656e206d696e74656400006044820152606401610e09565b6065546001600160a01b03163314612f9c57612f2f33600261406d565b61014254604051637a94c56560e11b815233600482015260026024820152600160448201526001600160a01b039091169063f5298aca90606401600060405180830381600087803b158015612f8357600080fd5b505af1158015612f97573d6000803e3d6000fd5b505050505b612fa633826146df565b60008181526101476020526040812042600582018190556002820155601001805491612fd183615c9d565b909155505060405181907ffee32438efd3befed0030a30ca548f56a09f33976916ac30c5a4f0cac9a0a00490600090a25060018055565b606060ca8054610f5690615c68565b6001600160a01b0382163314156130705760405162461bcd60e51b815260206004820152601960248201527f4552433732313a20617070726f766520746f2063616c6c6572000000000000006044820152606401610e09565b33600081815260ce602090815260408083206001600160a01b03871680855290835292819020805460ff191686151590811790915590519081529192917f17307eab39ab6107e8899845ad3d59bd9653f200f220920489ca2b5937696c31910160405180910390a35050565b6065546001600160a01b031633146131065760405162461bcd60e51b8152600401610e09906159cf565b8284116131555760405162461bcd60e51b815260206004820152601f60248201527f7374617274207072696365206d757374206265203e20656e64207072696365006044820152606401610e09565b8181116131a45760405162461bcd60e51b815260206004820152601d60248201527f656e642074696d65206d757374206265203e2073746172742074696d650000006044820152606401610e09565b6101338490556101348390556101358290556101368190556040805185815260208101859052908101839052606081018290527f6680844bd696e589559d0c02d66adf0dcded58f1391c9ddffdb9fcfa0f9a5551906080015b60405180910390a150505050565b6065546001600160a01b031633146132355760405162461bcd60e51b8152600401610e09906159cf565b61013784905561013883905561013982905561013a8190556040805185815260208101859052908101839052606081018290527f14470054e3c4d653d3c2d37f8007ff83b31395ae7a7c702f294e76d86cc9f5bb906080016131fd565b61329c338361413e565b6132b85760405162461bcd60e51b8152600401610e0990615a04565b6126b784848484614b46565b600061012d5442101580156132db575061012d5415155b6132e757506000919050565b6000828152610147602052604081206002015415613317576000838152610147602052604090206002015461331c565b61012d545b6000848152610147602052604081206008015461013a5492935090916133429190615c06565b60008581526101476020526040902060070154610139546133639190615c06565b610138546133719190615bda565b61337b9190615bda565b61013754909150811161338e5780613393565b610137545b9050620151806133a38342615c25565b6133ad9083615c06565b6133b79190615bf2565b600085815261014760205260409020600101546133d49190615bda565b949350505050565b60606133e7826149e9565b613440576000828152610147602052604090819020600901549051638c4796c760e01b8152600481018490526001600160a01b0390911690638c4796c79060240160006040518083038186803b1580156128d157600080fd5b61014354604051638c4796c760e01b8152600481018490526001600160a01b0390911690638c4796c79060240160006040518083038186803b15801561296157600080fd5b6065546001600160a01b031633146134af5760405162461bcd60e51b8152600401610e09906159cf565b6402540be4008111156134f95760405162461bcd60e51b815260206004820152601260248201527163616e6e6f7420657863656564203130302560701b6044820152606401610e09565b61012e8190556040518181527ff268ecbec0c486afcaee04a34e03f074ec863bb029bf05f7224e3dbe02ed96ba90602001611516565b6065546001600160a01b031633146135595760405162461bcd60e51b8152600401610e09906159cf565b61356281613fc4565b61013f80546001600160a01b0319166001600160a01b0383169081179091556040519081527f3294bc8d8e1f78d3a3d9bba2f70ed4d29bc3c9e5026ccac265d888546ad0225e90602001611516565b6101305460008281526101476020526040812060030154909182916135d69190615bda565b6101315460008581526101476020526040812060040154929350916135fb9190615bda565b6101325460008681526101476020526040812060050154929350916136209190615bda565b905042831015806136315750428210155b8061363c5750428110155b95945050505050565b600061014582604051613658919061588f565b9081526040519081900360200190205460ff1692915050565b600260015414156136945760405162461bcd60e51b8152600401610e0990615a55565b60026001556136a1613a37565b6136ab3383614009565b6136b482613b52565b61013d546040516323b872dd60e01b8152336004820152306024820152604481018390526001600160a01b03909116906323b872dd90606401602060405180830381600087803b15801561370757600080fd5b505af115801561371b573d6000803e3d6000fd5b505050506040513d601f19601f8201168201806040525081019061373f919061556e565b506000828152610147602052604081206001018054839290613762908490615bda565b909155505060405181815282907fa3af609bf46297028ce551832669030f9effef2b02606d02cbbcc40fe6b47c55906020016117ba565b600054610100900460ff16806137b2575060005460ff16155b6137ce5760405162461bcd60e51b8152600401610e0990615981565b600054610100900460ff161580156137f0576000805461ffff19166101011790555b6137fa8787614b79565b613802614c00565b6801158e460913d0000061013755670de0b6b3a7640000610138819055671bc16d674ec800006101395561013a55639502f90061012f5561013b80546001600160a01b038088166001600160a01b03199283161790925561013c805487841690831617905561013d80548684169083161790556101428054928516929091169190911790558015613899576000805461ff00191690555b50505050505050565b6065546001600160a01b031633146138cc5760405162461bcd60e51b8152600401610e09906159cf565b6001600160a01b0381166139315760405162461bcd60e51b815260206004820152602660248201527f4f776e61626c653a206e6577206f776e657220697320746865207a65726f206160448201526564647265737360d01b6064820152608401610e09565b61393a81614997565b50565b6065546001600160a01b031633146139675760405162461bcd60e51b8152600401610e09906159cf565b6402540be4008111156139b15760405162461bcd60e51b815260206004820152601260248201527163616e6e6f7420657863656564203130302560701b6044820152606401610e09565b61012f8190556040518181527ff4c61aaedc32e8fd71886b2e6634ce06e30dda22424f213da44d3c6495ca1ecb90602001611516565b60006001600160e01b031982166380ac58cd60e01b1480613a1857506001600160e01b03198216635b5e139f60e01b145b80610da557506301ffc9a760e01b6001600160e01b0319831614610da5565b61012d544210158015613a4c575061012d5415155b6127ef5760405162461bcd60e51b815260206004820152601260248201527133b0b6b2903430b9903737ba103132b3bab760711b6044820152606401610e09565b613a98838383614c7b565b600081815260cb60205260409020546001600160a01b0316613afc5760405162461bcd60e51b815260206004820152601f60248201527f74617267657420656e746572707269736520646f65736e2774206578697374006044820152606401610e09565b613b05816135b1565b1561117f5760405162461bcd60e51b815260206004820152601b60248201527f74617267657420656e746572707269736520697320696d6d756e6500000000006044820152606401610e09565b613b5b816132c4565b60009182526101476020526040909120600181019190915542600290910155565b60026001541415613b9f5760405162461bcd60e51b8152600401610e0990615a55565b6002600190815560008481526101476020526040902001546402540be4009080841115613bf35783613bd66402540be40083615c06565b613be09190615bf2565b9150613bed600183615bda565b91508093505b613bfd85856147f7565b6402540be400613c0d8484615c06565b613c179190615bf2565b9250613c2386846147f7565b6000868152610147602052604081206006018054859290613c45908490615bda565b9091555050600086815261014760205260408120600c018054869290613c6c908490615bda565b9091555050600085815261014760205260408120600d018054869290613c93908490615bda565b90915550506000868152610147602090815260408083206003810184905560048101849055600501929092558151858152908101869052869188917fe00277dd9e64310b31ba4212d9e7c487ff6b180cee24164d2693fe528e3bfd6f9101612580565b60026001541415613d195760405162461bcd60e51b8152600401610e0990615a55565b6002600190815561013f54604051630783369160e01b81526004810187905260248101869052604481019290925260009182916001600160a01b031690630783369190606401606060405180830381600087803b158015613d7957600080fd5b505af1158015613d8d573d6000803e3d6000fd5b505050506040513d601f19601f82011682018060405250810190613db19190615803565b509092509050613dca83613dc58385615bda565b61469a565b613dd3856126bd565b6001600160a01b03166108fc839081150290604051600060405180830381858888f19350505050158015613e0b573d6000803e3d6000fd5b506065546040516001600160a01b039091169082156108fc029083906000818181858888f19350505050158015613e46573d6000803e3d6000fd5b50613e518183615bda565b831115613e9b57336108fc82613e678587615c25565b613e719190615c25565b6040518115909202916000818181858888f19350505050158015613e99573d6000803e3d6000fd5b505b613ea4846148f0565b6000868514613eb35786613eb5565b855b905085811415613ed257613ed2613ecb876126bd565b3388614231565b600081815261014760205260408120600701805491613ef083615c9d565b909155505060008181526101476020526040908190204260039091015551869088907f2739370bba801c137b994641c29c21df791541f7279faa64371590f21a58a62d90613f419089815260200190565b60405180910390a35050600180555050505050565b600081815260cd6020526040902080546001600160a01b0319166001600160a01b0384169081179091558190613f8b826126bd565b6001600160a01b03167f8c5be1e5ebec7d5bd14f71427d1e84f3dd0314c0f7b2291e5b200ac8c7c3b92560405160405180910390a45050565b6001600160a01b03811661393a5760405162461bcd60e51b815260206004820152600c60248201526b7a65726f206164647265737360a01b6044820152606401610e09565b816001600160a01b031661401c826126bd565b6001600160a01b0316146140695760405162461bcd60e51b81526020600482015260146024820152733737ba1032b73a32b9383934b9b29037bbb732b960611b6044820152606401610e09565b5050565b61014254604051627eeac760e11b81526001600160a01b03848116600483015260248201849052600092169062fdd58e9060440160206040518083038186803b1580156140b957600080fd5b505afa1580156140cd573d6000803e3d6000fd5b505050506040513d601f19601f820116820180604052508101906140f19190615730565b116140695760405162461bcd60e51b815260206004820152601960248201527f63616c6c6572206973206e6f7420746f6b656e206f776e6572000000000000006044820152606401610e09565b600081815260cb60205260408120546001600160a01b03166141b75760405162461bcd60e51b815260206004820152602c60248201527f4552433732313a206f70657261746f7220717565727920666f72206e6f6e657860448201526b34b9ba32b73a103a37b5b2b760a11b6064820152608401610e09565b60006141c2836126bd565b9050806001600160a01b0316846001600160a01b031614806141fd5750836001600160a01b03166141f284610fd9565b6001600160a01b0316145b806133d457506001600160a01b03808216600090815260ce602090815260408083209388168352929052205460ff166133d4565b826001600160a01b0316614244826126bd565b6001600160a01b0316146142ac5760405162461bcd60e51b815260206004820152602960248201527f4552433732313a207472616e73666572206f6620746f6b656e2074686174206960448201526839903737ba1037bbb760b91b6064820152608401610e09565b6001600160a01b03821661430e5760405162461bcd60e51b8152602060048201526024808201527f4552433732313a207472616e7366657220746f20746865207a65726f206164646044820152637265737360e01b6064820152608401610e09565b614319838383614cd5565b614324600082613f56565b6001600160a01b038316600090815260cc6020526040812080546001929061434d908490615c25565b90915550506001600160a01b038216600090815260cc6020526040812080546001929061437b908490615bda565b9091555050600081815260cb602052604080822080546001600160a01b0319166001600160a01b0386811691821790925591518493918716917fddf252ad1be2c89b69c2b068fc378daa952ba7f163c4a11628f55a4df523b3ef91a4505050565b6000808290506001815110156143f55750600092915050565b6014815111156144085750600092915050565b8060008151811061441b5761441b615d0e565b6020910101516001600160f81b031916600160fd1b141561443f5750600092915050565b806001825161444e9190615c25565b8151811061445e5761445e615d0e565b6020910101516001600160f81b031916600160fd1b14156144825750600092915050565b60008160008151811061449757614497615d0e565b01602001516001600160f81b031916905060005b82518110156145e05760008382815181106144c8576144c8615d0e565b01602001516001600160f81b0319169050600160fd1b811480156144f95750600160fd1b6001600160f81b03198416145b1561450a5750600095945050505050565b600360fc1b6001600160f81b03198216108015906145365750603960f81b6001600160f81b0319821611155b15801561456c5750604160f81b6001600160f81b031982161080159061456a5750602d60f91b6001600160f81b0319821611155b155b80156145a15750606160f81b6001600160f81b031982161080159061459f5750603d60f91b6001600160f81b0319821611155b155b80156145bb5750600160fd1b6001600160f81b0319821614155b156145cc5750600095945050505050565b9150806145d881615c9d565b9150506144ab565b506001949350505050565b61013354158015906145ff57506101365415155b801561460e5750610135544210155b6127ef5760405162461bcd60e51b815260206004820152601860248201527f666f756e64696e6720686173206e6f74207374617274656400000000000000006044820152606401610e09565b8082106140695760405162461bcd60e51b815260206004820152600e60248201526d6578636565647320737570706c7960901b6044820152606401610e09565b808210156140695760405162461bcd60e51b8152602060048201526012602482015271696e73756666696369656e74204d4154494360701b6044820152606401610e09565b614069828260405180602001604052806000815250614d8d565b60608161471d5750506040805180820190915260018152600360fc1b602082015290565b8160005b8115614747578061473181615c9d565b91506147409050600a83615bf2565b9150614721565b60008167ffffffffffffffff81111561476257614762615d24565b6040519080825280601f01601f19166020018201604052801561478c576020820181803683370190505b5090505b84156133d4576147a1600183615c25565b91506147ae600a86615cb8565b6147b9906030615bda565b60f81b8183815181106147ce576147ce615d0e565b60200101906001600160f81b031916908160001a9053506147f0600a86615bf2565b9450614790565b600082815261014760205260409020600101548111156148515760405162461bcd60e51b815260206004820152601560248201527406578636565647320656e746572707269736520525605c1b6044820152606401610e09565b6000828152610147602052604081206001018054839290614873908490615c25565b90915550505050565b614887838383614c7b565b826001600160a01b031661489a826126bd565b6001600160a01b03161461117f5760405162461bcd60e51b815260206004820152601e60248201527f6e6f74206f776e6572206f662074617267657420656e746572707269736500006044820152606401610e09565b60006148fb826126bd565b905061490981600084614cd5565b614914600083613f56565b6001600160a01b038116600090815260cc6020526040812080546001929061493d908490615c25565b9091555050600082815260cb602052604080822080546001600160a01b0319169055518391906001600160a01b038416907fddf252ad1be2c89b69c2b068fc378daa952ba7f163c4a11628f55a4df523b3ef908390a45050565b606580546001600160a01b038381166001600160a01b0319831681179093556040519116919082907f8be0079c531659141344cd1fd0a4f28419497f9722a3daafe3b4186f6b6457e090600090a35050565b60008181526101476020526040808220600901549051638c4796c760e01b8152600481018490526001600160a01b0390911690638c4796c79060240160006040518083038186803b158015614a3d57600080fd5b505afa925050508015614a7257506040513d6000823e601f3d908101601f19168201604052614a6f91908101906155fa565b60015b614a7e57506001919050565b80511580614ab65750600083815261014760209081526040808320600901546001600160a01b0316835261014690915290205460ff16155b15614ac45750600192915050565b50600092915050565b50919050565b600061014a54821080614b0257506123288210158015614b02575061232861014954614aff9190615bda565b82105b80610da55750614b16611388612328615bda565b8210158015610da5575061138861232861014854614b349190615bda565b614b3e9190615bda565b821092915050565b614b51848484614231565b614b5d84848484614dc0565b6126b75760405162461bcd60e51b8152600401610e099061592f565b600054610100900460ff1680614b92575060005460ff16155b614bae5760405162461bcd60e51b8152600401610e0990615981565b600054610100900460ff16158015614bd0576000805461ffff19166101011790555b614bd8614ec2565b614be0614ec2565b614bea8383614f2c565b801561117f576000805461ff0019169055505050565b600054610100900460ff1680614c19575060005460ff16155b614c355760405162461bcd60e51b8152600401610e0990615981565b600054610100900460ff16158015614c57576000805461ffff19166101011790555b614c5f614ec2565b614c67614fc1565b801561393a576000805461ff001916905550565b80821415614ccb5760405162461bcd60e51b815260206004820152601960248201527f656e74657270726973657320617265206964656e746963616c000000000000006044820152606401610e09565b61117f8383614009565b6001600160a01b038316614d3057614d2b8160fd8054600083815260fe60205260408120829055600182018355919091527f9346ac6dd7de6b96975fec380d4d994c4c12e6a8897544f22915316cc6cca2800155565b614d53565b816001600160a01b0316836001600160a01b031614614d5357614d538382615021565b6001600160a01b038216614d6a5761117f816150be565b826001600160a01b0316826001600160a01b03161461117f5761117f828261516d565b614d9783836151b1565b614da46000848484614dc0565b61117f5760405162461bcd60e51b8152600401610e099061592f565b60006001600160a01b0384163b156145e057604051630a85bd0160e11b81526001600160a01b0385169063150b7a0290614e049033908990889088906004016158df565b602060405180830381600087803b158015614e1e57600080fd5b505af1925050508015614e4e575060408051601f3d908101601f19168201909252614e4b918101906155a8565b60015b614ea8573d808015614e7c576040519150601f19603f3d011682016040523d82523d6000602084013e614e81565b606091505b508051614ea05760405162461bcd60e51b8152600401610e099061592f565b805181602001fd5b6001600160e01b031916630a85bd0160e11b1490506133d4565b600054610100900460ff1680614edb575060005460ff16155b614ef75760405162461bcd60e51b8152600401610e0990615981565b600054610100900460ff16158015614c67576000805461ffff1916610101179055801561393a576000805461ff001916905550565b600054610100900460ff1680614f45575060005460ff16155b614f615760405162461bcd60e51b8152600401610e0990615981565b600054610100900460ff16158015614f83576000805461ffff19166101011790555b8251614f969060c99060208601906152ff565b508151614faa9060ca9060208501906152ff565b50801561117f576000805461ff0019169055505050565b600054610100900460ff1680614fda575060005460ff16155b614ff65760405162461bcd60e51b8152600401610e0990615981565b600054610100900460ff16158015615018576000805461ffff19166101011790555b614c6733614997565b6000600161502e84612734565b6150389190615c25565b600083815260fc602052604090205490915080821461508b576001600160a01b038416600090815260fb60209081526040808320858452825280832054848452818420819055835260fc90915290208190555b50600091825260fc602090815260408084208490556001600160a01b03909416835260fb81528383209183525290812055565b60fd546000906150d090600190615c25565b600083815260fe602052604081205460fd80549394509092849081106150f8576150f8615d0e565b906000526020600020015490508060fd838154811061511957615119615d0e565b600091825260208083209091019290925582815260fe909152604080822084905585825281205560fd80548061515157615151615cf8565b6001900381819060005260206000200160009055905550505050565b600061517883612734565b6001600160a01b03909316600090815260fb60209081526040808320868452825280832085905593825260fc9052919091209190915550565b6001600160a01b0382166152075760405162461bcd60e51b815260206004820181905260248201527f4552433732313a206d696e7420746f20746865207a65726f20616464726573736044820152606401610e09565b600081815260cb60205260409020546001600160a01b03161561526c5760405162461bcd60e51b815260206004820152601c60248201527f4552433732313a20746f6b656e20616c7265616479206d696e746564000000006044820152606401610e09565b61527860008383614cd5565b6001600160a01b038216600090815260cc602052604081208054600192906152a1908490615bda565b9091555050600081815260cb602052604080822080546001600160a01b0319166001600160a01b03861690811790915590518392907fddf252ad1be2c89b69c2b068fc378daa952ba7f163c4a11628f55a4df523b3ef908290a45050565b82805461530b90615c68565b90600052602060002090601f01602090048101928261532d5760008555615373565b82601f1061534657805160ff1916838001178555615373565b82800160010185558215615373579182015b82811115615373578251825591602001919060010190615358565b5061537f929150615383565b5090565b5b8082111561537f5760008155600101615384565b60006153ab6153a684615bb2565b615b81565b90508281528383830111156153bf57600080fd5b828260208301376000602084830101529392505050565b600082601f8301126153e757600080fd5b6153f683833560208501615398565b9392505050565b60006020828403121561540f57600080fd5b81356153f681615d3a565b6000806040838503121561542d57600080fd5b823561543881615d3a565b9150602083013561544881615d3a565b809150509250929050565b60008060006060848603121561546857600080fd5b833561547381615d3a565b9250602084013561548381615d3a565b929592945050506040919091013590565b600080600080608085870312156154aa57600080fd5b84356154b581615d3a565b935060208501356154c581615d3a565b925060408501359150606085013567ffffffffffffffff8111156154e857600080fd5b8501601f810187136154f957600080fd5b61550887823560208401615398565b91505092959194509250565b6000806040838503121561552757600080fd5b823561553281615d3a565b9150602083013561544881615d4f565b6000806040838503121561555557600080fd5b823561556081615d3a565b946020939093013593505050565b60006020828403121561558057600080fd5b81516153f681615d4f565b60006020828403121561559d57600080fd5b81356153f681615d5d565b6000602082840312156155ba57600080fd5b81516153f681615d5d565b6000602082840312156155d757600080fd5b813567ffffffffffffffff8111156155ee57600080fd5b6133d4848285016153d6565b60006020828403121561560c57600080fd5b815167ffffffffffffffff81111561562357600080fd5b8201601f8101841361563457600080fd5b80516156426153a682615bb2565b81815285602083850101111561565757600080fd5b61363c826020830160208601615c3c565b60008060008060008060c0878903121561568157600080fd5b863567ffffffffffffffff8082111561569957600080fd5b6156a58a838b016153d6565b975060208901359150808211156156bb57600080fd5b506156c889828a016153d6565b95505060408701356156d981615d3a565b935060608701356156e981615d3a565b925060808701356156f981615d3a565b915060a087013561570981615d3a565b809150509295509295509295565b60006020828403121561572957600080fd5b5035919050565b60006020828403121561574257600080fd5b5051919050565b6000806040838503121561575c57600080fd5b82359150602083013561544881615d3a565b6000806040838503121561578157600080fd5b82359150602083013567ffffffffffffffff81111561579f57600080fd5b6157ab858286016153d6565b9150509250929050565b600080604083850312156157c857600080fd5b50508035926020909101359150565b6000806000606084860312156157ec57600080fd5b505081359360208301359350604090920135919050565b60008060006060848603121561581857600080fd5b8351925060208401519150604084015190509250925092565b6000806000806080858703121561584757600080fd5b5050823594602084013594506040840135936060013592509050565b6000815180845261587b816020860160208601615c3c565b601f01601f19169290920160200192915050565b600082516158a1818460208701615c3c565b9190910192915050565b6b456e7465727072697365202360a01b8152600082516158d281600c850160208701615c3c565b91909101600c0192915050565b6001600160a01b038581168252841660208201526040810183905260806060820181905260009061591290830184615863565b9695505050505050565b6020815260006153f66020830184615863565b60208082526032908201527f4552433732313a207472616e7366657220746f206e6f6e20455243373231526560408201527131b2b4bb32b91034b6b83632b6b2b73a32b960711b606082015260800190565b6020808252602e908201527f496e697469616c697a61626c653a20636f6e747261637420697320616c72656160408201526d191e481a5b9a5d1a585b1a5e995960921b606082015260800190565b6020808252818101527f4f776e61626c653a2063616c6c6572206973206e6f7420746865206f776e6572604082015260600190565b60208082526031908201527f4552433732313a207472616e736665722063616c6c6572206973206e6f74206f6040820152701ddb995c881b9bdc88185c1c1c9bdd9959607a1b606082015260800190565b6020808252601f908201527f5265656e7472616e637947756172643a207265656e7472616e742063616c6c00604082015260600190565b6020815260008251610220806020850152615aab610240850183615863565b9150602085015160408501526040850151606085015260608501516080850152608085015160a085015260a085015160c085015260c085015160e085015260e0850151610100818187015280870151915050610120818187015280870151915050610140615b23818701836001600160a01b03169052565b86015161016086810191909152860151610180808701919091528601516101a0808701919091528601516101c0808701919091528601516101e080870191909152860151610200808701919091529095015193019290925250919050565b604051601f8201601f1916810167ffffffffffffffff81118282101715615baa57615baa615d24565b604052919050565b600067ffffffffffffffff821115615bcc57615bcc615d24565b50601f01601f191660200190565b60008219821115615bed57615bed615ccc565b500190565b600082615c0157615c01615ce2565b500490565b6000816000190483118215151615615c2057615c20615ccc565b500290565b600082821015615c3757615c37615ccc565b500390565b60005b83811015615c57578181015183820152602001615c3f565b838111156126b75750506000910152565b600181811c90821680615c7c57607f821691505b60208210811415614acd57634e487b7160e01b600052602260045260246000fd5b6000600019821415615cb157615cb1615ccc565b5060010190565b600082615cc757615cc7615ce2565b500690565b634e487b7160e01b600052601160045260246000fd5b634e487b7160e01b600052601260045260246000fd5b634e487b7160e01b600052603160045260246000fd5b634e487b7160e01b600052603260045260246000fd5b634e487b7160e01b600052604160045260246000fd5b6001600160a01b038116811461393a57600080fd5b801515811461393a57600080fd5b6001600160e01b03198116811461393a57600080fdfea26469706673582212205704f38083bbf296308a2b9beb4b2ec14da109de980725d9941a24942983130364736f6c63430008060033",
  "linkReferences": {},
  "deployedLinkReferences": {}
}